{
  "contractName": "MediScan",
  "abi": [
    {
      "stateMutability": "payable",
      "type": "receive",
      "payable": true
    },
    {
      "inputs": [
        {
          "internalType": "string",
          "name": "_name",
          "type": "string"
        },
        {
          "internalType": "string",
          "name": "_gender",
          "type": "string"
        },
        {
          "internalType": "string",
          "name": "_country",
          "type": "string"
        },
        {
          "internalType": "uint256",
          "name": "_fee",
          "type": "uint256"
        },
        {
          "internalType": "string",
          "name": "_type",
          "type": "string"
        }
      ],
      "name": "signUp",
      "outputs": [],
      "stateMutability": "nonpayable",
      "type": "function"
    },
    {
      "inputs": [],
      "name": "refund",
      "outputs": [],
      "stateMutability": "nonpayable",
      "type": "function"
    },
    {
      "inputs": [],
      "name": "checkBal",
      "outputs": [
        {
          "internalType": "uint256",
          "name": "",
          "type": "uint256"
        }
      ],
      "stateMutability": "view",
      "type": "function",
      "constant": true
    },
    {
      "inputs": [],
      "name": "appointment",
      "outputs": [],
      "stateMutability": "payable",
      "type": "function",
      "payable": true
    },
    {
      "inputs": [
        {
          "internalType": "string",
          "name": "_name",
          "type": "string"
        },
        {
          "internalType": "string",
          "name": "_gender",
          "type": "string"
        },
        {
          "internalType": "string",
          "name": "_country",
          "type": "string"
        },
        {
          "internalType": "uint256",
          "name": "_fee",
          "type": "uint256"
        },
        {
          "internalType": "string",
          "name": "_type",
          "type": "string"
        }
      ],
      "name": "registerDoctor",
      "outputs": [],
      "stateMutability": "nonpayable",
      "type": "function"
    },
    {
      "inputs": [
        {
          "internalType": "string",
          "name": "_name",
          "type": "string"
        },
        {
          "internalType": "uint256",
          "name": "age",
          "type": "uint256"
        },
        {
          "internalType": "string",
          "name": "_bloodGp",
          "type": "string"
        },
        {
          "internalType": "string",
          "name": "_gender",
          "type": "string"
        },
        {
          "internalType": "string",
          "name": "_country",
          "type": "string"
        }
      ],
      "name": "registerPatient",
      "outputs": [],
      "stateMutability": "nonpayable",
      "type": "function"
    },
    {
      "inputs": [
        {
          "internalType": "address",
          "name": "_patient",
          "type": "address"
        }
      ],
      "name": "getPatient",
      "outputs": [
        {
          "components": [
            {
              "internalType": "string",
              "name": "name",
              "type": "string"
            },
            {
              "internalType": "uint256",
              "name": "age",
              "type": "uint256"
            },
            {
              "internalType": "string",
              "name": "bloodGroup",
              "type": "string"
            },
            {
              "internalType": "string",
              "name": "Gender",
              "type": "string"
            },
            {
              "internalType": "string",
              "name": "Country",
              "type": "string"
            }
          ],
          "internalType": "struct MediScan.Patient",
          "name": "",
          "type": "tuple"
        }
      ],
      "stateMutability": "view",
      "type": "function",
      "constant": true
    },
    {
      "inputs": [
        {
          "internalType": "address",
          "name": "_patient",
          "type": "address"
        },
        {
          "internalType": "string",
          "name": "_report",
          "type": "string"
        },
        {
          "internalType": "string",
          "name": "_date",
          "type": "string"
        }
      ],
      "name": "createReport",
      "outputs": [],
      "stateMutability": "nonpayable",
      "type": "function"
    },
    {
      "inputs": [
        {
          "internalType": "address",
          "name": "_patient",
          "type": "address"
        },
        {
          "internalType": "string",
          "name": "_date",
          "type": "string"
        }
      ],
      "name": "getReport",
      "outputs": [
        {
          "internalType": "string",
          "name": "",
          "type": "string"
        }
      ],
      "stateMutability": "view",
      "type": "function",
      "constant": true
    },
    {
      "inputs": [
        {
          "internalType": "address",
          "name": "_patient",
          "type": "address"
        }
      ],
      "name": "history",
      "outputs": [
        {
          "internalType": "string[]",
          "name": "",
          "type": "string[]"
        }
      ],
      "stateMutability": "nonpayable",
      "type": "function"
    }
  ],
  "bytecode": "0x608060405234801561001057600080fd5b50611d0b806100206000396000f3fe6080604052600436106100955760003560e01c8063931c7c6811610059578063931c7c681461015e578063b5368e201461019b578063be949300146101d8578063efbd9abe14610201578063f8edb9441461023e5761009c565b80632058ad6b146100a15780632322fdaf146100cc5780632b6613c8146100f5578063590e1ae31461011e57806370cb16dc146101355761009c565b3661009c57005b600080fd5b3480156100ad57600080fd5b506100b6610248565b6040516100c391906111dc565b60405180910390f35b3480156100d857600080fd5b506100f360048036038101906100ee919061137d565b610250565b005b34801561010157600080fd5b5061011c60048036038101906101179190611468565b610396565b005b34801561012a57600080fd5b50610133610483565b005b34801561014157600080fd5b5061015c6004803603810190610157919061137d565b61058d565b005b34801561016a57600080fd5b50610185600480360381019061018091906115b1565b6106d3565b6040516101929190611728565b60405180910390f35b3480156101a757600080fd5b506101c260048036038101906101bd91906115b1565b6108b0565b6040516101cf91906117e4565b60405180910390f35b3480156101e457600080fd5b506101ff60048036038101906101fa9190611806565b610b5a565b005b34801561020d57600080fd5b5061022860048036038101906102239190611891565b610df3565b6040516102359190611937565b60405180910390f35b61024661100c565b005b600047905090565b6040518060a0016040528086815260200185815260200184815260200183815260200182815250600160003373ffffffffffffffffffffffffffffffffffffffff1673ffffffffffffffffffffffffffffffffffffffff16815260200190815260200160002060008201518160000190805190602001906102d2929190611064565b5060208201518160010190805190602001906102ef929190611064565b50604082015181600201908051906020019061030c929190611064565b50606082015181600301556080820151816004019080519060200190610333929190611064565b509050506001600260003373ffffffffffffffffffffffffffffffffffffffff1673ffffffffffffffffffffffffffffffffffffffff16815260200190815260200160002060006101000a81548160ff0219169083151502179055505050505050565b6040518060a00160405280868152602001858152602001848152602001838152602001828152506000803373ffffffffffffffffffffffffffffffffffffffff1673ffffffffffffffffffffffffffffffffffffffff1681526020019081526020016000206000820151816000019080519060200190610417929190611064565b5060208201518160010155604082015181600201908051906020019061043e929190611064565b50606082015181600301908051906020019061045b929190611064565b506080820151816004019080519060200190610478929190611064565b509050505050505050565b6000600460003373ffffffffffffffffffffffffffffffffffffffff1673ffffffffffffffffffffffffffffffffffffffff1681526020019081526020016000205411610505576040517f08c379a00000000000000000000000000000000000000000000000000000000081526004016104fc906119a5565b60405180910390fd5b3373ffffffffffffffffffffffffffffffffffffffff166108fc600460003373ffffffffffffffffffffffffffffffffffffffff1673ffffffffffffffffffffffffffffffffffffffff168152602001908152602001600020549081150290604051600060405180830381858888f1935050505015801561058a573d6000803e3d6000fd5b50565b6001600260003373ffffffffffffffffffffffffffffffffffffffff1673ffffffffffffffffffffffffffffffffffffffff16815260200190815260200160002060006101000a81548160ff0219169083151502179055506040518060a0016040528086815260200185815260200184815260200183815260200182815250600160003373ffffffffffffffffffffffffffffffffffffffff1673ffffffffffffffffffffffffffffffffffffffff1681526020019081526020016000206000820151816000019080519060200190610667929190611064565b506020820151816001019080519060200190610684929190611064565b5060408201518160020190805190602001906106a1929190611064565b506060820151816003015560808201518160040190805190602001906106c8929190611064565b509050505050505050565b606060005b600360008473ffffffffffffffffffffffffffffffffffffffff1673ffffffffffffffffffffffffffffffffffffffff168152602001908152602001600020805490508110156107d6576005600360008573ffffffffffffffffffffffffffffffffffffffff1673ffffffffffffffffffffffffffffffffffffffff1681526020019081526020016000208281548110610775576107746119c5565b5b9060005260206000209060020201600101908060018154018082558091505060019003906000526020600020016000909190919091509080546107b790611a23565b6107c29291906110ea565b5080806107ce90611a83565b9150506106d8565b506005805480602002602001604051908101604052809291908181526020016000905b828210156108a557838290600052602060002001805461081890611a23565b80601f016020809104026020016040519081016040528092919081815260200182805461084490611a23565b80156108915780601f1061086657610100808354040283529160200191610891565b820191906000526020600020905b81548152906001019060200180831161087457829003601f168201915b5050505050815260200190600101906107f9565b505050509050919050565b6108b8611177565b6000808373ffffffffffffffffffffffffffffffffffffffff1673ffffffffffffffffffffffffffffffffffffffff1681526020019081526020016000206040518060a001604052908160008201805461091190611a23565b80601f016020809104026020016040519081016040528092919081815260200182805461093d90611a23565b801561098a5780601f1061095f5761010080835404028352916020019161098a565b820191906000526020600020905b81548152906001019060200180831161096d57829003601f168201915b50505050508152602001600182015481526020016002820180546109ad90611a23565b80601f01602080910402602001604051908101604052809291908181526020018280546109d990611a23565b8015610a265780601f106109fb57610100808354040283529160200191610a26565b820191906000526020600020905b815481529060010190602001808311610a0957829003601f168201915b50505050508152602001600382018054610a3f90611a23565b80601f0160208091040260200160405190810160405280929190818152602001828054610a6b90611a23565b8015610ab85780601f10610a8d57610100808354040283529160200191610ab8565b820191906000526020600020905b815481529060010190602001808311610a9b57829003601f168201915b50505050508152602001600482018054610ad190611a23565b80601f0160208091040260200160405190810160405280929190818152602001828054610afd90611a23565b8015610b4a5780601f10610b1f57610100808354040283529160200191610b4a565b820191906000526020600020905b815481529060010190602001808311610b2d57829003601f168201915b5050505050815250509050919050565b600260003373ffffffffffffffffffffffffffffffffffffffff1673ffffffffffffffffffffffffffffffffffffffff16815260200190815260200160002060009054906101000a900460ff16610be6576040517f08c379a0000000000000000000000000000000000000000000000000000000008152600401610bdd90611b17565b60405180910390fd5b82600160003373ffffffffffffffffffffffffffffffffffffffff1673ffffffffffffffffffffffffffffffffffffffff16815260200190815260200160002060030154600460008373ffffffffffffffffffffffffffffffffffffffff1673ffffffffffffffffffffffffffffffffffffffff168152602001908152602001600020541015610cab576040517f08c379a0000000000000000000000000000000000000000000000000000000008152600401610ca290611ba9565b60405180910390fd5b600360008573ffffffffffffffffffffffffffffffffffffffff1673ffffffffffffffffffffffffffffffffffffffff16815260200190815260200160002060405180604001604052808481526020018581525090806001815401808255809150506001900390600052602060002090600202016000909190919091506000820151816000019080519060200190610d44929190611064565b506020820151816001019080519060200190610d61929190611064565b5050503373ffffffffffffffffffffffffffffffffffffffff166108fc600160003373ffffffffffffffffffffffffffffffffffffffff1673ffffffffffffffffffffffffffffffffffffffff168152602001908152602001600020600301549081150290604051600060405180830381858888f19350505050158015610dec573d6000803e3d6000fd5b5050505050565b606060005b600360008573ffffffffffffffffffffffffffffffffffffffff1673ffffffffffffffffffffffffffffffffffffffff16815260200190815260200160002080549050811015610fcc57600360008573ffffffffffffffffffffffffffffffffffffffff1673ffffffffffffffffffffffffffffffffffffffff1681526020019081526020016000208181548110610e9357610e926119c5565b5b9060005260206000209060020201600001604051610eb19190611c68565b6040518091039020838051906020012003610fb957600360008573ffffffffffffffffffffffffffffffffffffffff1673ffffffffffffffffffffffffffffffffffffffff1681526020019081526020016000208181548110610f1757610f166119c5565b5b90600052602060002090600202016001018054610f3390611a23565b80601f0160208091040260200160405190810160405280929190818152602001828054610f5f90611a23565b8015610fac5780601f10610f8157610100808354040283529160200191610fac565b820191906000526020600020905b815481529060010190602001808311610f8f57829003601f168201915b5050505050915050611006565b8080610fc490611a83565b915050610df8565b506040518060400160405280600f81526020017f6e6f207265636f726420666f756e64000000000000000000000000000000000081525090505b92915050565b34600460003373ffffffffffffffffffffffffffffffffffffffff1673ffffffffffffffffffffffffffffffffffffffff168152602001908152602001600020600082825461105b9190611c7f565b92505081905550565b82805461107090611a23565b90600052602060002090601f01602090048101928261109257600085556110d9565b82601f106110ab57805160ff19168380011785556110d9565b828001600101855582156110d9579182015b828111156110d85782518255916020019190600101906110bd565b5b5090506110e691906111a6565b5090565b8280546110f690611a23565b90600052602060002090601f0160209004810192826111185760008555611166565b82601f106111295780548555611166565b8280016001018555821561116657600052602060002091601f016020900482015b8281111561116557825482559160010191906001019061114a565b5b50905061117391906111a6565b5090565b6040518060a0016040528060608152602001600081526020016060815260200160608152602001606081525090565b5b808211156111bf5760008160009055506001016111a7565b5090565b6000819050919050565b6111d6816111c3565b82525050565b60006020820190506111f160008301846111cd565b92915050565b6000604051905090565b600080fd5b600080fd5b600080fd5b600080fd5b6000601f19601f8301169050919050565b7f4e487b7100000000000000000000000000000000000000000000000000000000600052604160045260246000fd5b61125e82611215565b810181811067ffffffffffffffff8211171561127d5761127c611226565b5b80604052505050565b60006112906111f7565b905061129c8282611255565b919050565b600067ffffffffffffffff8211156112bc576112bb611226565b5b6112c582611215565b9050602081019050919050565b82818337600083830152505050565b60006112f46112ef846112a1565b611286565b9050828152602081018484840111156113105761130f611210565b5b61131b8482856112d2565b509392505050565b600082601f8301126113385761133761120b565b5b81356113488482602086016112e1565b91505092915050565b61135a816111c3565b811461136557600080fd5b50565b60008135905061137781611351565b92915050565b600080600080600060a0868803121561139957611398611201565b5b600086013567ffffffffffffffff8111156113b7576113b6611206565b5b6113c388828901611323565b955050602086013567ffffffffffffffff8111156113e4576113e3611206565b5b6113f088828901611323565b945050604086013567ffffffffffffffff81111561141157611410611206565b5b61141d88828901611323565b935050606061142e88828901611368565b925050608086013567ffffffffffffffff81111561144f5761144e611206565b5b61145b88828901611323565b9150509295509295909350565b600080600080600060a0868803121561148457611483611201565b5b600086013567ffffffffffffffff8111156114a2576114a1611206565b5b6114ae88828901611323565b95505060206114bf88828901611368565b945050604086013567ffffffffffffffff8111156114e0576114df611206565b5b6114ec88828901611323565b935050606086013567ffffffffffffffff81111561150d5761150c611206565b5b61151988828901611323565b925050608086013567ffffffffffffffff81111561153a57611539611206565b5b61154688828901611323565b9150509295509295909350565b600073ffffffffffffffffffffffffffffffffffffffff82169050919050565b600061157e82611553565b9050919050565b61158e81611573565b811461159957600080fd5b50565b6000813590506115ab81611585565b92915050565b6000602082840312156115c7576115c6611201565b5b60006115d58482850161159c565b91505092915050565b600081519050919050565b600082825260208201905092915050565b6000819050602082019050919050565b600081519050919050565b600082825260208201905092915050565b60005b83811015611644578082015181840152602081019050611629565b83811115611653576000848401525b50505050565b60006116648261160a565b61166e8185611615565b935061167e818560208601611626565b61168781611215565b840191505092915050565b600061169e8383611659565b905092915050565b6000602082019050919050565b60006116be826115de565b6116c881856115e9565b9350836020820285016116da856115fa565b8060005b8581101561171657848403895281516116f78582611692565b9450611702836116a6565b925060208a019950506001810190506116de565b50829750879550505050505092915050565b6000602082019050818103600083015261174281846116b3565b905092915050565b611753816111c3565b82525050565b600060a08301600083015184820360008601526117768282611659565b915050602083015161178b602086018261174a565b50604083015184820360408601526117a38282611659565b915050606083015184820360608601526117bd8282611659565b915050608083015184820360808601526117d78282611659565b9150508091505092915050565b600060208201905081810360008301526117fe8184611759565b905092915050565b60008060006060848603121561181f5761181e611201565b5b600061182d8682870161159c565b935050602084013567ffffffffffffffff81111561184e5761184d611206565b5b61185a86828701611323565b925050604084013567ffffffffffffffff81111561187b5761187a611206565b5b61188786828701611323565b9150509250925092565b600080604083850312156118a8576118a7611201565b5b60006118b68582860161159c565b925050602083013567ffffffffffffffff8111156118d7576118d6611206565b5b6118e385828601611323565b9150509250929050565b600082825260208201905092915050565b60006119098261160a565b61191381856118ed565b9350611923818560208601611626565b61192c81611215565b840191505092915050565b6000602082019050818103600083015261195181846118fe565b905092915050565b7f796f7520686176656e2774207061696420657468657200000000000000000000600082015250565b600061198f6016836118ed565b915061199a82611959565b602082019050919050565b600060208201905081810360008301526119be81611982565b9050919050565b7f4e487b7100000000000000000000000000000000000000000000000000000000600052603260045260246000fd5b7f4e487b7100000000000000000000000000000000000000000000000000000000600052602260045260246000fd5b60006002820490506001821680611a3b57607f821691505b602082108103611a4e57611a4d6119f4565b5b50919050565b7f4e487b7100000000000000000000000000000000000000000000000000000000600052601160045260246000fd5b6000611a8e826111c3565b91507fffffffffffffffffffffffffffffffffffffffffffffffffffffffffffffffff8203611ac057611abf611a54565b5b600182019050919050565b7f4f6e6c79206120446f63746f722063616e20616464207265706f727400000000600082015250565b6000611b01601c836118ed565b9150611b0c82611acb565b602082019050919050565b60006020820190508181036000830152611b3081611af4565b9050919050565b7f6574686572206973206e6f742070616964206163636f7264696e6720746f206660008201527f6565730000000000000000000000000000000000000000000000000000000000602082015250565b6000611b936023836118ed565b9150611b9e82611b37565b604082019050919050565b60006020820190508181036000830152611bc281611b86565b9050919050565b600081905092915050565b60008190508160005260206000209050919050565b60008154611bf681611a23565b611c008186611bc9565b94506001821660008114611c1b5760018114611c2c57611c5f565b60ff19831686528186019350611c5f565b611c3585611bd4565b60005b83811015611c5757815481890152600182019150602081019050611c38565b838801955050505b50505092915050565b6000611c748284611be9565b915081905092915050565b6000611c8a826111c3565b9150611c95836111c3565b9250827fffffffffffffffffffffffffffffffffffffffffffffffffffffffffffffffff03821115611cca57611cc9611a54565b5b82820190509291505056fea264697066735822122022e7a28b59af7436126caa66a415448e9181a7460e32464ed4b0005553b7aa7a64736f6c634300080d0033",
  "immutableReferences": {},
  "source": "// SPDX-License-Identifier: GPL-3.0\n\npragma solidity >=0.7.0 <0.9.0;\n\ncontract MediScan{\n\n    struct Patient {\n\n        string name;\n        uint age;\n        string bloodGroup;\n        string Gender;\n        string Country;\n\n    }\n\n    struct Doctor {\n\n        string name;\n        string Gender;\n        string Country;\n        uint fee;\n        string _type;\n    }\n\n    struct Report{\n\n        string date;\n\n        string report;\n\n    }\n\n    mapping(address=>Patient) Patients;\n\n    mapping(address=>Doctor) Doctors;\n\n    mapping(address=>bool)docOrPat;\n\n    mapping(address=>Report[]) Reports;\n\n    mapping(address=>uint) trans;\n\n    receive() external payable{}\n\n    modifier isDoctor() {\n        require(docOrPat[msg.sender], \"Only a Doctor can add report\");\n        _;\n    }\n\n    modifier paid(){\n\n        require(trans[msg.sender]>0,\"you haven't paid ether\");\n        _;\n    }\n\n    function signUp(string memory _name,string memory _gender,string memory _country,uint _fee,string memory _type) public {\n\n        docOrPat[msg.sender] = true;\n\n        Doctors[msg.sender] = Doctor(_name,_gender,_country,_fee,_type);\n\n    }\n\n    // make it like those who paid can only take refund if doctor not available or any reason.\n    function refund() external paid{\n\n        payable(msg.sender).transfer(trans[msg.sender]);\n\n    }\n\n    function checkBal() public view returns(uint){\n\n        return address(this).balance;\n    }\n\n    //appointment\n\n    function appointment() public payable{\n\n        //search doctor\n        //pay ether and get appointment with date and time.\n\n        trans[msg.sender] += msg.value;\n\n    }\n\n    function registerDoctor(string memory _name,string memory _gender,string memory _country,uint _fee,string memory _type) public\n    {\n        Doctors[msg.sender] = Doctor(_name,_gender,_country,_fee,_type);\n        docOrPat[msg.sender] = true;\n    }\n\n    //register hospital\n\n    // get report from history of patient record\n\n    function registerPatient(string memory _name,uint age,string memory _bloodGp,string memory _gender,string memory _country) public {\n\n        Patients[msg.sender] = Patient(_name,age,_bloodGp,_gender,_country);\n\n    }\n\n    function getPatient(address _patient)public view returns(Patient memory){\n\n        return Patients[_patient];\n\n    }\n\n    modifier check(address _patient){\n        require(trans[_patient]>=Doctors[msg.sender].fee,\"ether is not paid according to fees\");\n        _;\n    }\n\n    function createReport(address _patient,string memory _report, string memory _date) public isDoctor check(_patient){\n\n\n        Reports[_patient].push(Report(_date,_report));\n\n        payable(msg.sender).transfer((Doctors[msg.sender].fee));\n\n        // payable(_patient).transfer((address(this).balance-docFee[msg.sender])*1000000000000000000);\n\n        \n    }\n\n    function getReport(address _patient,string memory _date) public view returns(string memory) {\n\n        for(uint i = 0;i<Reports[_patient].length;i++)\n        {\n            if(keccak256(bytes(_date)) == keccak256(bytes(Reports[_patient][i].date)))\n            {\n                return Reports[_patient][i].report;\n            }\n        }\n\n        return \"no record found\";\n\n\n        \n    }\n\n\n    string[] x;\n\n    function history(address _patient) public returns(string[] memory){\n\n       \n\n       for(uint i =0;i<Reports[_patient].length;i++)\n       {\n           x.push(Reports[_patient][i].report);\n       }\n\n       return x;\n\n   }\n\n\n\n}\n",
  "sourcePath": "/home/ajroxz/Desktop/MediScan/contracts/MediScan.sol",
  "compiler": {
    "name": "solc",
    "version": "0.8.13+commit.abaa5c0e.Emscripten.clang"
  },
  "schemaVersion": "3.4.7",
  "updatedAt": "2022-05-07T08:45:25.300Z",
  "networkType": "ethereum",
  "devdoc": {
    "kind": "dev",
    "methods": {},
    "version": 1
  },
  "userdoc": {
    "kind": "user",
    "methods": {},
    "version": 1
  }
}