{
  "contractName": "MediScan",
  "abi": [
    {
      "stateMutability": "payable",
      "type": "receive",
      "payable": true
    },
    {
      "inputs": [
        {
          "internalType": "address",
          "name": "_user",
          "type": "address"
        },
        {
          "internalType": "uint256",
          "name": "_fee",
          "type": "uint256"
        }
      ],
      "name": "signUp",
      "outputs": [],
      "stateMutability": "nonpayable",
      "type": "function"
    },
    {
      "inputs": [
        {
          "internalType": "string",
          "name": "_name",
          "type": "string"
        },
        {
          "internalType": "uint256",
          "name": "age",
          "type": "uint256"
        },
        {
          "internalType": "string",
          "name": "_bloodGp",
          "type": "string"
        },
        {
          "internalType": "string",
          "name": "_gender",
          "type": "string"
        },
        {
          "internalType": "string",
          "name": "_country",
          "type": "string"
        }
      ],
      "name": "register",
      "outputs": [],
      "stateMutability": "nonpayable",
      "type": "function"
    },
    {
      "inputs": [],
      "name": "checkBal",
      "outputs": [
        {
          "internalType": "uint256",
          "name": "",
          "type": "uint256"
        }
      ],
      "stateMutability": "view",
      "type": "function",
      "constant": true
    },
    {
      "inputs": [
        {
          "internalType": "address",
          "name": "_patient",
          "type": "address"
        },
        {
          "internalType": "string",
          "name": "_report",
          "type": "string"
        },
        {
          "internalType": "string",
          "name": "_date",
          "type": "string"
        }
      ],
      "name": "createReport",
      "outputs": [],
      "stateMutability": "nonpayable",
      "type": "function"
    },
    {
      "inputs": [],
      "name": "refund",
      "outputs": [],
      "stateMutability": "nonpayable",
      "type": "function"
    },
    {
      "inputs": [
        {
          "internalType": "address",
          "name": "_patient",
          "type": "address"
        },
        {
          "internalType": "string",
          "name": "_date",
          "type": "string"
        }
      ],
      "name": "getReport",
      "outputs": [
        {
          "internalType": "string",
          "name": "",
          "type": "string"
        }
      ],
      "stateMutability": "view",
      "type": "function",
      "constant": true
    },
    {
      "inputs": [
        {
          "internalType": "address",
          "name": "_patient",
          "type": "address"
        }
      ],
      "name": "history",
      "outputs": [
        {
          "internalType": "string[]",
          "name": "",
          "type": "string[]"
        }
      ],
      "stateMutability": "nonpayable",
      "type": "function"
    }
  ],
  "bytecode": "0x608060405234801561001057600080fd5b5061144b806100206000396000f3fe6080604052600436106100745760003560e01c8063a72a93fe1161004e578063a72a93fe146100ff578063be94930014610128578063d25030aa14610151578063efbd9abe1461017a5761007b565b80632058ad6b14610080578063590e1ae3146100ab578063931c7c68146100c25761007b565b3661007b57005b600080fd5b34801561008c57600080fd5b506100956101b7565b6040516100a29190610b7d565b60405180910390f35b3480156100b757600080fd5b506100c06101bf565b005b3480156100ce57600080fd5b506100e960048036038101906100e49190610c0a565b61021b565b6040516100f69190610d92565b60405180910390f35b34801561010b57600080fd5b5061012660048036038101906101219190610de0565b6103f8565b005b34801561013457600080fd5b5061014f600480360381019061014a9190610f55565b610497565b005b34801561015d57600080fd5b5061017860048036038101906101739190610fe0565b6106a0565b005b34801561018657600080fd5b506101a1600480360381019061019c91906110cb565b61078e565b6040516101ae9190611171565b60405180910390f35b600047905090565b3373ffffffffffffffffffffffffffffffffffffffff166108fc670de0b6b3a7640000476101ed91906111c2565b9081150290604051600060405180830381858888f19350505050158015610218573d6000803e3d6000fd5b50565b606060005b600560008473ffffffffffffffffffffffffffffffffffffffff1673ffffffffffffffffffffffffffffffffffffffff1681526020019081526020016000208054905081101561031e576001600560008573ffffffffffffffffffffffffffffffffffffffff1673ffffffffffffffffffffffffffffffffffffffff16815260200190815260200160002082815481106102bd576102bc61121c565b5b9060005260206000209060020201600101908060018154018082558091505060019003906000526020600020016000909190919091509080546102ff9061127a565b61030a9291906109a7565b508080610316906112ab565b915050610220565b506001805480602002602001604051908101604052809291908181526020016000905b828210156103ed5783829060005260206000200180546103609061127a565b80601f016020809104026020016040519081016040528092919081815260200182805461038c9061127a565b80156103d95780601f106103ae576101008083540402835291602001916103d9565b820191906000526020600020905b8154815290600101906020018083116103bc57829003601f168201915b505050505081526020019060010190610341565b505050509050919050565b60016000808473ffffffffffffffffffffffffffffffffffffffff1673ffffffffffffffffffffffffffffffffffffffff16815260200190815260200160002060006101000a81548160ff02191690831515021790555080600660008473ffffffffffffffffffffffffffffffffffffffff1673ffffffffffffffffffffffffffffffffffffffff168152602001908152602001600020819055505050565b6000803373ffffffffffffffffffffffffffffffffffffffff1673ffffffffffffffffffffffffffffffffffffffff16815260200190815260200160002060009054906101000a900460ff16610522576040517f08c379a00000000000000000000000000000000000000000000000000000000081526004016105199061133f565b60405180910390fd5b806003600001908051906020019061053b929190610a34565b508160036001019080519060200190610555929190610a34565b50600560008473ffffffffffffffffffffffffffffffffffffffff1673ffffffffffffffffffffffffffffffffffffffff1681526020019081526020016000206003908060018154018082558091505060019003906000526020600020906002020160009091909190915060008201816000019080546105d49061127a565b6105df929190610aba565b5060018201816001019080546105f49061127a565b6105ff929190610aba565b5050503373ffffffffffffffffffffffffffffffffffffffff166108fc670de0b6b3a7640000600660003373ffffffffffffffffffffffffffffffffffffffff1673ffffffffffffffffffffffffffffffffffffffff1681526020019081526020016000205461066f91906111c2565b9081150290604051600060405180830381858888f1935050505015801561069a573d6000803e3d6000fd5b50505050565b6040518060a0016040528086815260200185815260200184815260200183815260200182815250600260003373ffffffffffffffffffffffffffffffffffffffff1673ffffffffffffffffffffffffffffffffffffffff1681526020019081526020016000206000820151816000019080519060200190610722929190610a34565b50602082015181600101556040820151816002019080519060200190610749929190610a34565b506060820151816003019080519060200190610766929190610a34565b506080820151816004019080519060200190610783929190610a34565b509050505050505050565b606060005b600560008573ffffffffffffffffffffffffffffffffffffffff1673ffffffffffffffffffffffffffffffffffffffff1681526020019081526020016000208054905081101561096757600560008573ffffffffffffffffffffffffffffffffffffffff1673ffffffffffffffffffffffffffffffffffffffff168152602001908152602001600020818154811061082e5761082d61121c565b5b906000526020600020906002020160000160405161084c91906113fe565b604051809103902083805190602001200361095457600560008573ffffffffffffffffffffffffffffffffffffffff1673ffffffffffffffffffffffffffffffffffffffff16815260200190815260200160002081815481106108b2576108b161121c565b5b906000526020600020906002020160010180546108ce9061127a565b80601f01602080910402602001604051908101604052809291908181526020018280546108fa9061127a565b80156109475780601f1061091c57610100808354040283529160200191610947565b820191906000526020600020905b81548152906001019060200180831161092a57829003601f168201915b50505050509150506109a1565b808061095f906112ab565b915050610793565b506040518060400160405280600f81526020017f6e6f207265636f726420666f756e64000000000000000000000000000000000081525090505b92915050565b8280546109b39061127a565b90600052602060002090601f0160209004810192826109d55760008555610a23565b82601f106109e65780548555610a23565b82800160010185558215610a2357600052602060002091601f016020900482015b82811115610a22578254825591600101919060010190610a07565b5b509050610a309190610b47565b5090565b828054610a409061127a565b90600052602060002090601f016020900481019282610a625760008555610aa9565b82601f10610a7b57805160ff1916838001178555610aa9565b82800160010185558215610aa9579182015b82811115610aa8578251825591602001919060010190610a8d565b5b509050610ab69190610b47565b5090565b828054610ac69061127a565b90600052602060002090601f016020900481019282610ae85760008555610b36565b82601f10610af95780548555610b36565b82800160010185558215610b3657600052602060002091601f016020900482015b82811115610b35578254825591600101919060010190610b1a565b5b509050610b439190610b47565b5090565b5b80821115610b60576000816000905550600101610b48565b5090565b6000819050919050565b610b7781610b64565b82525050565b6000602082019050610b926000830184610b6e565b92915050565b6000604051905090565b600080fd5b600080fd5b600073ffffffffffffffffffffffffffffffffffffffff82169050919050565b6000610bd782610bac565b9050919050565b610be781610bcc565b8114610bf257600080fd5b50565b600081359050610c0481610bde565b92915050565b600060208284031215610c2057610c1f610ba2565b5b6000610c2e84828501610bf5565b91505092915050565b600081519050919050565b600082825260208201905092915050565b6000819050602082019050919050565b600081519050919050565b600082825260208201905092915050565b60005b83811015610c9d578082015181840152602081019050610c82565b83811115610cac576000848401525b50505050565b6000601f19601f8301169050919050565b6000610cce82610c63565b610cd88185610c6e565b9350610ce8818560208601610c7f565b610cf181610cb2565b840191505092915050565b6000610d088383610cc3565b905092915050565b6000602082019050919050565b6000610d2882610c37565b610d328185610c42565b935083602082028501610d4485610c53565b8060005b85811015610d805784840389528151610d618582610cfc565b9450610d6c83610d10565b925060208a01995050600181019050610d48565b50829750879550505050505092915050565b60006020820190508181036000830152610dac8184610d1d565b905092915050565b610dbd81610b64565b8114610dc857600080fd5b50565b600081359050610dda81610db4565b92915050565b60008060408385031215610df757610df6610ba2565b5b6000610e0585828601610bf5565b9250506020610e1685828601610dcb565b9150509250929050565b600080fd5b600080fd5b7f4e487b7100000000000000000000000000000000000000000000000000000000600052604160045260246000fd5b610e6282610cb2565b810181811067ffffffffffffffff82111715610e8157610e80610e2a565b5b80604052505050565b6000610e94610b98565b9050610ea08282610e59565b919050565b600067ffffffffffffffff821115610ec057610ebf610e2a565b5b610ec982610cb2565b9050602081019050919050565b82818337600083830152505050565b6000610ef8610ef384610ea5565b610e8a565b905082815260208101848484011115610f1457610f13610e25565b5b610f1f848285610ed6565b509392505050565b600082601f830112610f3c57610f3b610e20565b5b8135610f4c848260208601610ee5565b91505092915050565b600080600060608486031215610f6e57610f6d610ba2565b5b6000610f7c86828701610bf5565b935050602084013567ffffffffffffffff811115610f9d57610f9c610ba7565b5b610fa986828701610f27565b925050604084013567ffffffffffffffff811115610fca57610fc9610ba7565b5b610fd686828701610f27565b9150509250925092565b600080600080600060a08688031215610ffc57610ffb610ba2565b5b600086013567ffffffffffffffff81111561101a57611019610ba7565b5b61102688828901610f27565b955050602061103788828901610dcb565b945050604086013567ffffffffffffffff81111561105857611057610ba7565b5b61106488828901610f27565b935050606086013567ffffffffffffffff81111561108557611084610ba7565b5b61109188828901610f27565b925050608086013567ffffffffffffffff8111156110b2576110b1610ba7565b5b6110be88828901610f27565b9150509295509295909350565b600080604083850312156110e2576110e1610ba2565b5b60006110f085828601610bf5565b925050602083013567ffffffffffffffff81111561111157611110610ba7565b5b61111d85828601610f27565b9150509250929050565b600082825260208201905092915050565b600061114382610c63565b61114d8185611127565b935061115d818560208601610c7f565b61116681610cb2565b840191505092915050565b6000602082019050818103600083015261118b8184611138565b905092915050565b7f4e487b7100000000000000000000000000000000000000000000000000000000600052601160045260246000fd5b60006111cd82610b64565b91506111d883610b64565b9250817fffffffffffffffffffffffffffffffffffffffffffffffffffffffffffffffff048311821515161561121157611210611193565b5b828202905092915050565b7f4e487b7100000000000000000000000000000000000000000000000000000000600052603260045260246000fd5b7f4e487b7100000000000000000000000000000000000000000000000000000000600052602260045260246000fd5b6000600282049050600182168061129257607f821691505b6020821081036112a5576112a461124b565b5b50919050565b60006112b682610b64565b91507fffffffffffffffffffffffffffffffffffffffffffffffffffffffffffffffff82036112e8576112e7611193565b5b600182019050919050565b7f4f6e6c79206120446f63746f722063616e20616464207265706f727400000000600082015250565b6000611329601c83611127565b9150611334826112f3565b602082019050919050565b600060208201905081810360008301526113588161131c565b9050919050565b600081905092915050565b60008190508160005260206000209050919050565b6000815461138c8161127a565b611396818661135f565b945060018216600081146113b157600181146113c2576113f5565b60ff198316865281860193506113f5565b6113cb8561136a565b60005b838110156113ed578154818901526001820191506020810190506113ce565b838801955050505b50505092915050565b600061140a828461137f565b91508190509291505056fea26469706673582212201ebcb112a9df6f02a8827891a8a14ee22f47967c022d363a4cdbbe73f1bdc18864736f6c634300080d0033",
  "immutableReferences": {},
  "source": "// SPDX-License-Identifier: GPL-3.0\n\npragma solidity >=0.7.0 <0.9.0;\n\n\ncontract MediScan{\n\n    mapping(address=>bool) docOrPat;\n\n    string[]  x;\n\n    struct repoAndDate{\n\n        string date;\n\n        string repo;\n\n    }\n\n    struct Patients {\n\n        string name;\n        uint age;\n        string bloodGroup;\n        string Gender;\n        string Country;\n\n    }\n\n    mapping(address=>Patients) addToPat;\n\n    repoAndDate temp;\n\n    mapping(address=>repoAndDate[]) patRep;\n\n    mapping(address=>uint) docFee;\n\n    string report;\n\n    string date;\n\n    modifier isDoctor() {\n        require(docOrPat[msg.sender], \"Only a Doctor can add report\");\n        _;\n    }\n\n    function signUp(address _user,uint _fee) public {\n\n        docOrPat[_user] = true;\n\n        docFee[_user] = _fee;\n    }\n\n\n    function register(string memory _name,uint age,string memory _bloodGp,string memory _gender,string memory _country) public {\n\n        addToPat[msg.sender] = Patients(_name,age,_bloodGp,_gender,_country);\n\n    }\n\n    receive() external payable{}\n\n\n    function checkBal() public view returns(uint){\n\n        return address(this).balance;\n    }\n\n    function createReport(address _patient,string memory _report, string memory _date) public isDoctor {\n\n\n        temp.date = _date;\n\n        temp.repo = _report;\n\n        patRep[_patient].push(temp);\n\n        payable(msg.sender).transfer(docFee[msg.sender]*1000000000000000000);\n\n        // payable(_patient).transfer((address(this).balance-docFee[msg.sender])*1000000000000000000);\n\n        \n        \n    }\n\n    function refund() public {\n\n        payable(msg.sender).transfer(address(this).balance*1000000000000000000);\n\n    }\n\n    function getReport(address _patient,string memory _date) public view returns(string memory) {\n\n        for(uint i = 0;i<patRep[_patient].length;i++)\n        {\n            if(keccak256(bytes(_date)) == keccak256(bytes(patRep[_patient][i].date)))\n            {\n                return patRep[_patient][i].repo;\n            }\n        }\n\n        return \"no record found\";\n\n\n        \n    }\n    \n\n   function history(address _patient) public returns(string[] memory){\n\n       \n\n       for(uint i =0;i<patRep[_patient].length;i++)\n       {\n           x.push(patRep[_patient][i].repo);\n       }\n\n       return x;\n\n   }\n\n\n\n}\n",
  "sourcePath": "/home/ajroxz/Desktop/MediScan/contracts/MediScan.sol",
  "compiler": {
    "name": "solc",
    "version": "0.8.13+commit.abaa5c0e.Emscripten.clang"
  },
  "schemaVersion": "3.4.7",
  "updatedAt": "2022-04-24T15:43:58.172Z",
  "networkType": "ethereum",
  "devdoc": {
    "kind": "dev",
    "methods": {},
    "version": 1
  },
  "userdoc": {
    "kind": "user",
    "methods": {},
    "version": 1
  }
}