{
  "contractName": "MediScan",
  "abi": [
    {
      "stateMutability": "payable",
      "type": "receive",
      "payable": true
    },
    {
      "inputs": [
        {
          "internalType": "string",
          "name": "_name",
          "type": "string"
        },
        {
          "internalType": "string",
          "name": "_gender",
          "type": "string"
        },
        {
          "internalType": "string",
          "name": "_country",
          "type": "string"
        },
        {
          "internalType": "uint256",
          "name": "_fee",
          "type": "uint256"
        },
        {
          "internalType": "string",
          "name": "_type",
          "type": "string"
        }
      ],
      "name": "signUp",
      "outputs": [],
      "stateMutability": "nonpayable",
      "type": "function"
    },
    {
      "inputs": [],
      "name": "refund",
      "outputs": [],
      "stateMutability": "nonpayable",
      "type": "function"
    },
    {
      "inputs": [],
      "name": "checkBal",
      "outputs": [
        {
          "internalType": "uint256",
          "name": "",
          "type": "uint256"
        }
      ],
      "stateMutability": "view",
      "type": "function",
      "constant": true
    },
    {
      "inputs": [],
      "name": "appointment",
      "outputs": [],
      "stateMutability": "payable",
      "type": "function",
      "payable": true
    },
    {
      "inputs": [
        {
          "internalType": "string",
          "name": "_name",
          "type": "string"
        },
        {
          "internalType": "string",
          "name": "_gender",
          "type": "string"
        },
        {
          "internalType": "string",
          "name": "_country",
          "type": "string"
        },
        {
          "internalType": "uint256",
          "name": "_fee",
          "type": "uint256"
        },
        {
          "internalType": "string",
          "name": "_type",
          "type": "string"
        }
      ],
      "name": "registerDoctor",
      "outputs": [],
      "stateMutability": "nonpayable",
      "type": "function"
    },
    {
      "inputs": [
        {
          "internalType": "string",
          "name": "_name",
          "type": "string"
        },
        {
          "internalType": "uint256",
          "name": "age",
          "type": "uint256"
        },
        {
          "internalType": "string",
          "name": "_bloodGp",
          "type": "string"
        },
        {
          "internalType": "string",
          "name": "_gender",
          "type": "string"
        },
        {
          "internalType": "string",
          "name": "_country",
          "type": "string"
        }
      ],
      "name": "registerPatient",
      "outputs": [],
      "stateMutability": "nonpayable",
      "type": "function"
    },
    {
      "inputs": [
        {
          "internalType": "address",
          "name": "_patient",
          "type": "address"
        },
        {
          "internalType": "string",
          "name": "_report",
          "type": "string"
        },
        {
          "internalType": "string",
          "name": "_date",
          "type": "string"
        }
      ],
      "name": "createReport",
      "outputs": [],
      "stateMutability": "nonpayable",
      "type": "function"
    },
    {
      "inputs": [
        {
          "internalType": "address",
          "name": "_patient",
          "type": "address"
        },
        {
          "internalType": "string",
          "name": "_date",
          "type": "string"
        }
      ],
      "name": "getReport",
      "outputs": [
        {
          "internalType": "string",
          "name": "",
          "type": "string"
        }
      ],
      "stateMutability": "view",
      "type": "function",
      "constant": true
    },
    {
      "inputs": [
        {
          "internalType": "address",
          "name": "_patient",
          "type": "address"
        }
      ],
      "name": "history",
      "outputs": [
        {
          "internalType": "string[]",
          "name": "",
          "type": "string[]"
        }
      ],
      "stateMutability": "nonpayable",
      "type": "function"
    }
  ],
  "bytecode": "0x608060405234801561001057600080fd5b5061192e806100206000396000f3fe60806040526004361061008a5760003560e01c806370cb16dc1161005957806370cb16dc1461012a578063931c7c6814610153578063be94930014610190578063efbd9abe146101b9578063f8edb944146101f657610091565b80632058ad6b146100965780632322fdaf146100c15780632b6613c8146100ea578063590e1ae31461011357610091565b3661009157005b600080fd5b3480156100a257600080fd5b506100ab610200565b6040516100b89190610ebb565b60405180910390f35b3480156100cd57600080fd5b506100e860048036038101906100e3919061105c565b610208565b005b3480156100f657600080fd5b50610111600480360381019061010c9190611147565b61034e565b005b34801561011f57600080fd5b5061012861043b565b005b34801561013657600080fd5b50610151600480360381019061014c919061105c565b610545565b005b34801561015f57600080fd5b5061017a60048036038101906101759190611290565b61068b565b6040516101879190611407565b60405180910390f35b34801561019c57600080fd5b506101b760048036038101906101b29190611429565b610868565b005b3480156101c557600080fd5b506101e060048036038101906101db91906114b4565b610b01565b6040516101ed919061155a565b60405180910390f35b6101fe610d1a565b005b600047905090565b6040518060a0016040528086815260200185815260200184815260200183815260200182815250600160003373ffffffffffffffffffffffffffffffffffffffff1673ffffffffffffffffffffffffffffffffffffffff168152602001908152602001600020600082015181600001908051906020019061028a929190610d72565b5060208201518160010190805190602001906102a7929190610d72565b5060408201518160020190805190602001906102c4929190610d72565b506060820151816003015560808201518160040190805190602001906102eb929190610d72565b509050506001600260003373ffffffffffffffffffffffffffffffffffffffff1673ffffffffffffffffffffffffffffffffffffffff16815260200190815260200160002060006101000a81548160ff0219169083151502179055505050505050565b6040518060a00160405280868152602001858152602001848152602001838152602001828152506000803373ffffffffffffffffffffffffffffffffffffffff1673ffffffffffffffffffffffffffffffffffffffff16815260200190815260200160002060008201518160000190805190602001906103cf929190610d72565b506020820151816001015560408201518160020190805190602001906103f6929190610d72565b506060820151816003019080519060200190610413929190610d72565b506080820151816004019080519060200190610430929190610d72565b509050505050505050565b6000600460003373ffffffffffffffffffffffffffffffffffffffff1673ffffffffffffffffffffffffffffffffffffffff16815260200190815260200160002054116104bd576040517f08c379a00000000000000000000000000000000000000000000000000000000081526004016104b4906115c8565b60405180910390fd5b3373ffffffffffffffffffffffffffffffffffffffff166108fc600460003373ffffffffffffffffffffffffffffffffffffffff1673ffffffffffffffffffffffffffffffffffffffff168152602001908152602001600020549081150290604051600060405180830381858888f19350505050158015610542573d6000803e3d6000fd5b50565b6001600260003373ffffffffffffffffffffffffffffffffffffffff1673ffffffffffffffffffffffffffffffffffffffff16815260200190815260200160002060006101000a81548160ff0219169083151502179055506040518060a0016040528086815260200185815260200184815260200183815260200182815250600160003373ffffffffffffffffffffffffffffffffffffffff1673ffffffffffffffffffffffffffffffffffffffff168152602001908152602001600020600082015181600001908051906020019061061f929190610d72565b50602082015181600101908051906020019061063c929190610d72565b506040820151816002019080519060200190610659929190610d72565b50606082015181600301556080820151816004019080519060200190610680929190610d72565b509050505050505050565b606060005b600360008473ffffffffffffffffffffffffffffffffffffffff1673ffffffffffffffffffffffffffffffffffffffff1681526020019081526020016000208054905081101561078e576005600360008573ffffffffffffffffffffffffffffffffffffffff1673ffffffffffffffffffffffffffffffffffffffff168152602001908152602001600020828154811061072d5761072c6115e8565b5b90600052602060002090600202016001019080600181540180825580915050600190039060005260206000200160009091909190915090805461076f90611646565b61077a929190610df8565b508080610786906116a6565b915050610690565b506005805480602002602001604051908101604052809291908181526020016000905b8282101561085d5783829060005260206000200180546107d090611646565b80601f01602080910402602001604051908101604052809291908181526020018280546107fc90611646565b80156108495780601f1061081e57610100808354040283529160200191610849565b820191906000526020600020905b81548152906001019060200180831161082c57829003601f168201915b5050505050815260200190600101906107b1565b505050509050919050565b600260003373ffffffffffffffffffffffffffffffffffffffff1673ffffffffffffffffffffffffffffffffffffffff16815260200190815260200160002060009054906101000a900460ff166108f4576040517f08c379a00000000000000000000000000000000000000000000000000000000081526004016108eb9061173a565b60405180910390fd5b82600160003373ffffffffffffffffffffffffffffffffffffffff1673ffffffffffffffffffffffffffffffffffffffff16815260200190815260200160002060030154600460008373ffffffffffffffffffffffffffffffffffffffff1673ffffffffffffffffffffffffffffffffffffffff1681526020019081526020016000205410156109b9576040517f08c379a00000000000000000000000000000000000000000000000000000000081526004016109b0906117cc565b60405180910390fd5b600360008573ffffffffffffffffffffffffffffffffffffffff1673ffffffffffffffffffffffffffffffffffffffff16815260200190815260200160002060405180604001604052808481526020018581525090806001815401808255809150506001900390600052602060002090600202016000909190919091506000820151816000019080519060200190610a52929190610d72565b506020820151816001019080519060200190610a6f929190610d72565b5050503373ffffffffffffffffffffffffffffffffffffffff166108fc600160003373ffffffffffffffffffffffffffffffffffffffff1673ffffffffffffffffffffffffffffffffffffffff168152602001908152602001600020600301549081150290604051600060405180830381858888f19350505050158015610afa573d6000803e3d6000fd5b5050505050565b606060005b600360008573ffffffffffffffffffffffffffffffffffffffff1673ffffffffffffffffffffffffffffffffffffffff16815260200190815260200160002080549050811015610cda57600360008573ffffffffffffffffffffffffffffffffffffffff1673ffffffffffffffffffffffffffffffffffffffff1681526020019081526020016000208181548110610ba157610ba06115e8565b5b9060005260206000209060020201600001604051610bbf919061188b565b6040518091039020838051906020012003610cc757600360008573ffffffffffffffffffffffffffffffffffffffff1673ffffffffffffffffffffffffffffffffffffffff1681526020019081526020016000208181548110610c2557610c246115e8565b5b90600052602060002090600202016001018054610c4190611646565b80601f0160208091040260200160405190810160405280929190818152602001828054610c6d90611646565b8015610cba5780601f10610c8f57610100808354040283529160200191610cba565b820191906000526020600020905b815481529060010190602001808311610c9d57829003601f168201915b5050505050915050610d14565b8080610cd2906116a6565b915050610b06565b506040518060400160405280600f81526020017f6e6f207265636f726420666f756e64000000000000000000000000000000000081525090505b92915050565b34600460003373ffffffffffffffffffffffffffffffffffffffff1673ffffffffffffffffffffffffffffffffffffffff1681526020019081526020016000206000828254610d6991906118a2565b92505081905550565b828054610d7e90611646565b90600052602060002090601f016020900481019282610da05760008555610de7565b82601f10610db957805160ff1916838001178555610de7565b82800160010185558215610de7579182015b82811115610de6578251825591602001919060010190610dcb565b5b509050610df49190610e85565b5090565b828054610e0490611646565b90600052602060002090601f016020900481019282610e265760008555610e74565b82601f10610e375780548555610e74565b82800160010185558215610e7457600052602060002091601f016020900482015b82811115610e73578254825591600101919060010190610e58565b5b509050610e819190610e85565b5090565b5b80821115610e9e576000816000905550600101610e86565b5090565b6000819050919050565b610eb581610ea2565b82525050565b6000602082019050610ed06000830184610eac565b92915050565b6000604051905090565b600080fd5b600080fd5b600080fd5b600080fd5b6000601f19601f8301169050919050565b7f4e487b7100000000000000000000000000000000000000000000000000000000600052604160045260246000fd5b610f3d82610ef4565b810181811067ffffffffffffffff82111715610f5c57610f5b610f05565b5b80604052505050565b6000610f6f610ed6565b9050610f7b8282610f34565b919050565b600067ffffffffffffffff821115610f9b57610f9a610f05565b5b610fa482610ef4565b9050602081019050919050565b82818337600083830152505050565b6000610fd3610fce84610f80565b610f65565b905082815260208101848484011115610fef57610fee610eef565b5b610ffa848285610fb1565b509392505050565b600082601f83011261101757611016610eea565b5b8135611027848260208601610fc0565b91505092915050565b61103981610ea2565b811461104457600080fd5b50565b60008135905061105681611030565b92915050565b600080600080600060a0868803121561107857611077610ee0565b5b600086013567ffffffffffffffff81111561109657611095610ee5565b5b6110a288828901611002565b955050602086013567ffffffffffffffff8111156110c3576110c2610ee5565b5b6110cf88828901611002565b945050604086013567ffffffffffffffff8111156110f0576110ef610ee5565b5b6110fc88828901611002565b935050606061110d88828901611047565b925050608086013567ffffffffffffffff81111561112e5761112d610ee5565b5b61113a88828901611002565b9150509295509295909350565b600080600080600060a0868803121561116357611162610ee0565b5b600086013567ffffffffffffffff81111561118157611180610ee5565b5b61118d88828901611002565b955050602061119e88828901611047565b945050604086013567ffffffffffffffff8111156111bf576111be610ee5565b5b6111cb88828901611002565b935050606086013567ffffffffffffffff8111156111ec576111eb610ee5565b5b6111f888828901611002565b925050608086013567ffffffffffffffff81111561121957611218610ee5565b5b61122588828901611002565b9150509295509295909350565b600073ffffffffffffffffffffffffffffffffffffffff82169050919050565b600061125d82611232565b9050919050565b61126d81611252565b811461127857600080fd5b50565b60008135905061128a81611264565b92915050565b6000602082840312156112a6576112a5610ee0565b5b60006112b48482850161127b565b91505092915050565b600081519050919050565b600082825260208201905092915050565b6000819050602082019050919050565b600081519050919050565b600082825260208201905092915050565b60005b83811015611323578082015181840152602081019050611308565b83811115611332576000848401525b50505050565b6000611343826112e9565b61134d81856112f4565b935061135d818560208601611305565b61136681610ef4565b840191505092915050565b600061137d8383611338565b905092915050565b6000602082019050919050565b600061139d826112bd565b6113a781856112c8565b9350836020820285016113b9856112d9565b8060005b858110156113f557848403895281516113d68582611371565b94506113e183611385565b925060208a019950506001810190506113bd565b50829750879550505050505092915050565b600060208201905081810360008301526114218184611392565b905092915050565b60008060006060848603121561144257611441610ee0565b5b60006114508682870161127b565b935050602084013567ffffffffffffffff81111561147157611470610ee5565b5b61147d86828701611002565b925050604084013567ffffffffffffffff81111561149e5761149d610ee5565b5b6114aa86828701611002565b9150509250925092565b600080604083850312156114cb576114ca610ee0565b5b60006114d98582860161127b565b925050602083013567ffffffffffffffff8111156114fa576114f9610ee5565b5b61150685828601611002565b9150509250929050565b600082825260208201905092915050565b600061152c826112e9565b6115368185611510565b9350611546818560208601611305565b61154f81610ef4565b840191505092915050565b600060208201905081810360008301526115748184611521565b905092915050565b7f796f7520686176656e2774207061696420657468657200000000000000000000600082015250565b60006115b2601683611510565b91506115bd8261157c565b602082019050919050565b600060208201905081810360008301526115e1816115a5565b9050919050565b7f4e487b7100000000000000000000000000000000000000000000000000000000600052603260045260246000fd5b7f4e487b7100000000000000000000000000000000000000000000000000000000600052602260045260246000fd5b6000600282049050600182168061165e57607f821691505b60208210810361167157611670611617565b5b50919050565b7f4e487b7100000000000000000000000000000000000000000000000000000000600052601160045260246000fd5b60006116b182610ea2565b91507fffffffffffffffffffffffffffffffffffffffffffffffffffffffffffffffff82036116e3576116e2611677565b5b600182019050919050565b7f4f6e6c79206120446f63746f722063616e20616464207265706f727400000000600082015250565b6000611724601c83611510565b915061172f826116ee565b602082019050919050565b6000602082019050818103600083015261175381611717565b9050919050565b7f6574686572206973206e6f742070616964206163636f7264696e6720746f206660008201527f6565730000000000000000000000000000000000000000000000000000000000602082015250565b60006117b6602383611510565b91506117c18261175a565b604082019050919050565b600060208201905081810360008301526117e5816117a9565b9050919050565b600081905092915050565b60008190508160005260206000209050919050565b6000815461181981611646565b61182381866117ec565b9450600182166000811461183e576001811461184f57611882565b60ff19831686528186019350611882565b611858856117f7565b60005b8381101561187a5781548189015260018201915060208101905061185b565b838801955050505b50505092915050565b6000611897828461180c565b915081905092915050565b60006118ad82610ea2565b91506118b883610ea2565b9250827fffffffffffffffffffffffffffffffffffffffffffffffffffffffffffffffff038211156118ed576118ec611677565b5b82820190509291505056fea264697066735822122072cb48038ca6af93847c64284b7227d7bb7bda872ed141c4cd7259b12404359764736f6c634300080d0033",
  "immutableReferences": {},
  "source": "// SPDX-License-Identifier: GPL-3.0\n\npragma solidity >=0.7.0 <0.9.0;\n\ncontract MediScan{\n\n    struct Patient {\n\n        string name;\n        uint age;\n        string bloodGroup;\n        string Gender;\n        string Country;\n\n    }\n\n    struct Doctor {\n\n        string name;\n        string Gender;\n        string Country;\n        uint fee;\n        string _type;\n    }\n\n    struct Report{\n\n        string date;\n\n        string report;\n\n    }\n\n    mapping(address=>Patient) Patients;\n\n    mapping(address=>Doctor) Doctors;\n\n    mapping(address=>bool)docOrPat;\n\n    mapping(address=>Report[]) Reports;\n\n    mapping(address=>uint) trans;\n\n    receive() external payable{}\n\n    modifier isDoctor() {\n        require(docOrPat[msg.sender], \"Only a Doctor can add report\");\n        _;\n    }\n\n    modifier paid(){\n\n        require(trans[msg.sender]>0,\"you haven't paid ether\");\n        _;\n    }\n\n    function signUp(string memory _name,string memory _gender,string memory _country,uint _fee,string memory _type) public {\n\n        docOrPat[msg.sender] = true;\n\n        Doctors[msg.sender] = Doctor(_name,_gender,_country,_fee,_type);\n\n    }\n\n    // make it like those who paid can only take refund if doctor not available or any reason.\n    function refund() external paid{\n\n        payable(msg.sender).transfer(trans[msg.sender]);\n\n    }\n\n    function checkBal() public view returns(uint){\n\n        return address(this).balance;\n    }\n\n    //appointment\n\n    function appointment() public payable{\n\n        //search doctor\n        //pay ether and get appointment with date and time.\n\n        trans[msg.sender] += msg.value;\n\n    }\n\n    function registerDoctor(string memory _name,string memory _gender,string memory _country,uint _fee,string memory _type) public\n    {\n        Doctors[msg.sender] = Doctor(_name,_gender,_country,_fee,_type);\n        docOrPat[msg.sender] = true;\n    }\n\n    //register hospital\n\n    // get report from history of patient record\n\n    function registerPatient(string memory _name,uint age,string memory _bloodGp,string memory _gender,string memory _country) public {\n\n        Patients[msg.sender] = Patient(_name,age,_bloodGp,_gender,_country);\n\n    }\n\n    modifier check(address _patient){\n        require(trans[_patient]>=Doctors[msg.sender].fee,\"ether is not paid according to fees\");\n        _;\n    }\n\n    function createReport(address _patient,string memory _report, string memory _date) public isDoctor check(_patient){\n\n\n        Reports[_patient].push(Report(_date,_report));\n\n        payable(msg.sender).transfer((Doctors[msg.sender].fee));\n\n        // payable(_patient).transfer((address(this).balance-docFee[msg.sender])*1000000000000000000);\n\n        \n    }\n\n    function getReport(address _patient,string memory _date) public view returns(string memory) {\n\n        for(uint i = 0;i<Reports[_patient].length;i++)\n        {\n            if(keccak256(bytes(_date)) == keccak256(bytes(Reports[_patient][i].date)))\n            {\n                return Reports[_patient][i].report;\n            }\n        }\n\n        return \"no record found\";\n\n\n        \n    }\n\n\n    string[] x;\n\n    function history(address _patient) public returns(string[] memory){\n\n       \n\n       for(uint i =0;i<Reports[_patient].length;i++)\n       {\n           x.push(Reports[_patient][i].report);\n       }\n\n       return x;\n\n   }\n\n\n\n}\n",
  "sourcePath": "/home/ajroxz/Desktop/MediScan/contracts/MediScan.sol",
  "compiler": {
    "name": "solc",
    "version": "0.8.13+commit.abaa5c0e.Emscripten.clang"
  },
  "schemaVersion": "3.4.7",
  "updatedAt": "2022-05-01T16:45:34.430Z",
  "networkType": "ethereum",
  "devdoc": {
    "kind": "dev",
    "methods": {},
    "version": 1
  },
  "userdoc": {
    "kind": "user",
    "methods": {},
    "version": 1
  }
}